{
  "_format": "hh-sol-artifact-1",
  "contractName": "SeraNFT",
  "sourceName": "contracts/SeraNFT.sol",
  "abi": [
    {
      "inputs": [],
      "stateMutability": "nonpayable",
      "type": "constructor"
    },
    {
      "anonymous": false,
      "inputs": [
        {
          "indexed": true,
          "internalType": "address",
          "name": "account",
          "type": "address"
        },
        {
          "indexed": true,
          "internalType": "address",
          "name": "operator",
          "type": "address"
        },
        {
          "indexed": false,
          "internalType": "bool",
          "name": "approved",
          "type": "bool"
        }
      ],
      "name": "ApprovalForAll",
      "type": "event"
    },
    {
      "anonymous": false,
      "inputs": [
        {
          "indexed": true,
          "internalType": "address",
          "name": "operator",
          "type": "address"
        },
        {
          "indexed": true,
          "internalType": "address",
          "name": "from",
          "type": "address"
        },
        {
          "indexed": true,
          "internalType": "address",
          "name": "to",
          "type": "address"
        },
        {
          "indexed": false,
          "internalType": "uint256[]",
          "name": "ids",
          "type": "uint256[]"
        },
        {
          "indexed": false,
          "internalType": "uint256[]",
          "name": "values",
          "type": "uint256[]"
        }
      ],
      "name": "TransferBatch",
      "type": "event"
    },
    {
      "anonymous": false,
      "inputs": [
        {
          "indexed": true,
          "internalType": "address",
          "name": "operator",
          "type": "address"
        },
        {
          "indexed": true,
          "internalType": "address",
          "name": "from",
          "type": "address"
        },
        {
          "indexed": true,
          "internalType": "address",
          "name": "to",
          "type": "address"
        },
        {
          "indexed": false,
          "internalType": "uint256",
          "name": "id",
          "type": "uint256"
        },
        {
          "indexed": false,
          "internalType": "uint256",
          "name": "value",
          "type": "uint256"
        }
      ],
      "name": "TransferSingle",
      "type": "event"
    },
    {
      "anonymous": false,
      "inputs": [
        {
          "indexed": false,
          "internalType": "string",
          "name": "value",
          "type": "string"
        },
        {
          "indexed": true,
          "internalType": "uint256",
          "name": "id",
          "type": "uint256"
        }
      ],
      "name": "URI",
      "type": "event"
    },
    {
      "inputs": [
        {
          "internalType": "address",
          "name": "account",
          "type": "address"
        },
        {
          "internalType": "uint256",
          "name": "id",
          "type": "uint256"
        }
      ],
      "name": "balanceOf",
      "outputs": [
        {
          "internalType": "uint256",
          "name": "",
          "type": "uint256"
        }
      ],
      "stateMutability": "view",
      "type": "function"
    },
    {
      "inputs": [
        {
          "internalType": "address[]",
          "name": "accounts",
          "type": "address[]"
        },
        {
          "internalType": "uint256[]",
          "name": "ids",
          "type": "uint256[]"
        }
      ],
      "name": "balanceOfBatch",
      "outputs": [
        {
          "internalType": "uint256[]",
          "name": "",
          "type": "uint256[]"
        }
      ],
      "stateMutability": "view",
      "type": "function"
    },
    {
      "inputs": [
        {
          "internalType": "address",
          "name": "account",
          "type": "address"
        },
        {
          "internalType": "address",
          "name": "operator",
          "type": "address"
        }
      ],
      "name": "isApprovedForAll",
      "outputs": [
        {
          "internalType": "bool",
          "name": "",
          "type": "bool"
        }
      ],
      "stateMutability": "view",
      "type": "function"
    },
    {
      "inputs": [],
      "name": "mintToken",
      "outputs": [],
      "stateMutability": "nonpayable",
      "type": "function"
    },
    {
      "inputs": [],
      "name": "owner",
      "outputs": [
        {
          "internalType": "address",
          "name": "",
          "type": "address"
        }
      ],
      "stateMutability": "view",
      "type": "function"
    },
    {
      "inputs": [
        {
          "internalType": "address",
          "name": "from",
          "type": "address"
        },
        {
          "internalType": "address",
          "name": "to",
          "type": "address"
        },
        {
          "internalType": "uint256[]",
          "name": "ids",
          "type": "uint256[]"
        },
        {
          "internalType": "uint256[]",
          "name": "amounts",
          "type": "uint256[]"
        },
        {
          "internalType": "bytes",
          "name": "data",
          "type": "bytes"
        }
      ],
      "name": "safeBatchTransferFrom",
      "outputs": [],
      "stateMutability": "nonpayable",
      "type": "function"
    },
    {
      "inputs": [
        {
          "internalType": "address",
          "name": "from",
          "type": "address"
        },
        {
          "internalType": "address",
          "name": "to",
          "type": "address"
        },
        {
          "internalType": "uint256",
          "name": "id",
          "type": "uint256"
        },
        {
          "internalType": "uint256",
          "name": "amount",
          "type": "uint256"
        },
        {
          "internalType": "bytes",
          "name": "data",
          "type": "bytes"
        }
      ],
      "name": "safeTransferFrom",
      "outputs": [],
      "stateMutability": "nonpayable",
      "type": "function"
    },
    {
      "inputs": [
        {
          "internalType": "address",
          "name": "operator",
          "type": "address"
        },
        {
          "internalType": "bool",
          "name": "approved",
          "type": "bool"
        }
      ],
      "name": "setApprovalForAll",
      "outputs": [],
      "stateMutability": "nonpayable",
      "type": "function"
    },
    {
      "inputs": [
        {
          "internalType": "bytes4",
          "name": "interfaceId",
          "type": "bytes4"
        }
      ],
      "name": "supportsInterface",
      "outputs": [
        {
          "internalType": "bool",
          "name": "",
          "type": "bool"
        }
      ],
      "stateMutability": "view",
      "type": "function"
    },
    {
      "inputs": [
        {
          "internalType": "uint256",
          "name": "",
          "type": "uint256"
        }
      ],
      "name": "uri",
      "outputs": [
        {
          "internalType": "string",
          "name": "",
          "type": "string"
        }
      ],
      "stateMutability": "view",
      "type": "function"
    }
  ],
  "bytecode": "0x60806040523480156200001157600080fd5b50604051806060016040528060278152602001620016f760279139620000378162000055565b506001600355600480546001600160a01b0319163317905562000151565b80516200006a9060029060208401906200006e565b5050565b8280546200007c9062000114565b90600052602060002090601f016020900481019282620000a05760008555620000eb565b82601f10620000bb57805160ff1916838001178555620000eb565b82800160010185558215620000eb579182015b82811115620000eb578251825591602001919060010190620000ce565b50620000f9929150620000fd565b5090565b5b80821115620000f95760008155600101620000fe565b600181811c908216806200012957607f821691505b602082108114156200014b57634e487b7160e01b600052602260045260246000fd5b50919050565b61159680620001616000396000f3fe608060405234801561001057600080fd5b506004361061009d5760003560e01c80634e1273f4116100665780634e1273f4146101285780638da5cb5b14610148578063a22cb46514610173578063e985e9c514610186578063f242432a146101c257600080fd5b8062fdd58e146100a257806301ffc9a7146100c85780630e89341c146100eb5780632004ffd91461010b5780632eb2c2d614610115575b600080fd5b6100b56100b0366004610d4a565b6101d5565b6040519081526020015b60405180910390f35b6100db6100d6366004610d8d565b61026b565b60405190151581526020016100bf565b6100fe6100f9366004610db1565b6102bd565b6040516100bf9190610e17565b610113610351565b005b610113610123366004610f76565b61038e565b61013b610136366004611020565b6103da565b6040516100bf9190611126565b60045461015b906001600160a01b031681565b6040516001600160a01b0390911681526020016100bf565b610113610181366004611139565b610504565b6100db610194366004611175565b6001600160a01b03918216600090815260016020908152604080832093909416825291909152205460ff1690565b6101136101d03660046111a8565b610513565b60006001600160a01b0383166102455760405162461bcd60e51b815260206004820152602a60248201527f455243313135353a2061646472657373207a65726f206973206e6f742061207660448201526930b634b21037bbb732b960b11b60648201526084015b60405180910390fd5b506000908152602081815260408083206001600160a01b03949094168352929052205490565b60006001600160e01b03198216636cdb3d1360e11b148061029c57506001600160e01b031982166303a24d0760e21b145b806102b757506301ffc9a760e01b6001600160e01b03198316145b92915050565b6060600280546102cc9061120d565b80601f01602080910402602001604051908101604052809291908181526020018280546102f89061120d565b80156103455780601f1061031a57610100808354040283529160200191610345565b820191906000526020600020905b81548152906001019060200180831161032857829003601f168201915b50505050509050919050565b610359610558565b61038233600180604051806040016040528060048152602001630307830360e41b8152506105b2565b61038c6001600355565b565b6001600160a01b0385163314806103aa57506103aa8533610194565b6103c65760405162461bcd60e51b815260040161023c90611248565b6103d385858585856106c6565b5050505050565b6060815183511461043f5760405162461bcd60e51b815260206004820152602960248201527f455243313135353a206163636f756e747320616e6420696473206c656e677468604482015268040dad2e6dac2e8c6d60bb1b606482015260840161023c565b6000835167ffffffffffffffff81111561045b5761045b610e2a565b604051908082528060200260200182016040528015610484578160200160208202803683370190505b50905060005b84518110156104fc576104cf8582815181106104a8576104a8611296565b60200260200101518583815181106104c2576104c2611296565b60200260200101516101d5565b8282815181106104e1576104e1611296565b60209081029190910101526104f5816112c2565b905061048a565b509392505050565b61050f3383836108a3565b5050565b6001600160a01b03851633148061052f575061052f8533610194565b61054b5760405162461bcd60e51b815260040161023c90611248565b6103d38585858585610984565b600260035414156105ab5760405162461bcd60e51b815260206004820152601f60248201527f5265656e7472616e637947756172643a207265656e7472616e742063616c6c00604482015260640161023c565b6002600355565b6001600160a01b0384166106125760405162461bcd60e51b815260206004820152602160248201527f455243313135353a206d696e7420746f20746865207a65726f206164647265736044820152607360f81b606482015260840161023c565b33600061061e85610aae565b9050600061062b85610aae565b90506000868152602081815260408083206001600160a01b038b1684529091528120805487929061065d9084906112dd565b909155505060408051878152602081018790526001600160a01b03808a1692600092918716917fc3d58168c5ae7397731d063d5bbf3d657854427343f4c083240f7aacaa2d0f62910160405180910390a46106bd83600089898989610af9565b50505050505050565b81518351146107285760405162461bcd60e51b815260206004820152602860248201527f455243313135353a2069647320616e6420616d6f756e7473206c656e677468206044820152670dad2e6dac2e8c6d60c31b606482015260840161023c565b6001600160a01b03841661074e5760405162461bcd60e51b815260040161023c906112f5565b3360005b845181101561083557600085828151811061076f5761076f611296565b60200260200101519050600085838151811061078d5761078d611296565b602090810291909101810151600084815280835260408082206001600160a01b038e1683529093529190912054909150818110156107dd5760405162461bcd60e51b815260040161023c9061133a565b6000838152602081815260408083206001600160a01b038e8116855292528083208585039055908b1682528120805484929061081a9084906112dd565b925050819055505050508061082e906112c2565b9050610752565b50846001600160a01b0316866001600160a01b0316826001600160a01b03167f4a39dc06d4c0dbc64b70af90fd698a233a518aa5d07e595d983b8c0526c8f7fb8787604051610885929190611384565b60405180910390a461089b818787878787610c64565b505050505050565b816001600160a01b0316836001600160a01b031614156109175760405162461bcd60e51b815260206004820152602960248201527f455243313135353a2073657474696e6720617070726f76616c20737461747573604482015268103337b91039b2b63360b91b606482015260840161023c565b6001600160a01b03838116600081815260016020908152604080832094871680845294825291829020805460ff191686151590811790915591519182527f17307eab39ab6107e8899845ad3d59bd9653f200f220920489ca2b5937696c31910160405180910390a3505050565b6001600160a01b0384166109aa5760405162461bcd60e51b815260040161023c906112f5565b3360006109b685610aae565b905060006109c385610aae565b90506000868152602081815260408083206001600160a01b038c16845290915290205485811015610a065760405162461bcd60e51b815260040161023c9061133a565b6000878152602081815260408083206001600160a01b038d8116855292528083208985039055908a16825281208054889290610a439084906112dd565b909155505060408051888152602081018890526001600160a01b03808b16928c821692918816917fc3d58168c5ae7397731d063d5bbf3d657854427343f4c083240f7aacaa2d0f62910160405180910390a4610aa3848a8a8a8a8a610af9565b505050505050505050565b60408051600180825281830190925260609160009190602080830190803683370190505090508281600081518110610ae857610ae8611296565b602090810291909101015292915050565b6001600160a01b0384163b1561089b5760405163f23a6e6160e01b81526001600160a01b0385169063f23a6e6190610b3d90899089908890889088906004016113b2565b602060405180830381600087803b158015610b5757600080fd5b505af1925050508015610b87575060408051601f3d908101601f19168201909252610b84918101906113f7565b60015b610c3457610b93611414565b806308c379a01415610bcd5750610ba8611430565b80610bb35750610bcf565b8060405162461bcd60e51b815260040161023c9190610e17565b505b60405162461bcd60e51b815260206004820152603460248201527f455243313135353a207472616e7366657220746f206e6f6e2d455243313135356044820152732932b1b2b4bb32b91034b6b83632b6b2b73a32b960611b606482015260840161023c565b6001600160e01b0319811663f23a6e6160e01b146106bd5760405162461bcd60e51b815260040161023c906114ba565b6001600160a01b0384163b1561089b5760405163bc197c8160e01b81526001600160a01b0385169063bc197c8190610ca89089908990889088908890600401611502565b602060405180830381600087803b158015610cc257600080fd5b505af1925050508015610cf2575060408051601f3d908101601f19168201909252610cef918101906113f7565b60015b610cfe57610b93611414565b6001600160e01b0319811663bc197c8160e01b146106bd5760405162461bcd60e51b815260040161023c906114ba565b80356001600160a01b0381168114610d4557600080fd5b919050565b60008060408385031215610d5d57600080fd5b610d6683610d2e565b946020939093013593505050565b6001600160e01b031981168114610d8a57600080fd5b50565b600060208284031215610d9f57600080fd5b8135610daa81610d74565b9392505050565b600060208284031215610dc357600080fd5b5035919050565b6000815180845260005b81811015610df057602081850181015186830182015201610dd4565b81811115610e02576000602083870101525b50601f01601f19169290920160200192915050565b602081526000610daa6020830184610dca565b634e487b7160e01b600052604160045260246000fd5b601f8201601f1916810167ffffffffffffffff81118282101715610e6657610e66610e2a565b6040525050565b600067ffffffffffffffff821115610e8757610e87610e2a565b5060051b60200190565b600082601f830112610ea257600080fd5b81356020610eaf82610e6d565b604051610ebc8282610e40565b83815260059390931b8501820192828101915086841115610edc57600080fd5b8286015b84811015610ef75780358352918301918301610ee0565b509695505050505050565b600082601f830112610f1357600080fd5b813567ffffffffffffffff811115610f2d57610f2d610e2a565b604051610f44601f8301601f191660200182610e40565b818152846020838601011115610f5957600080fd5b816020850160208301376000918101602001919091529392505050565b600080600080600060a08688031215610f8e57600080fd5b610f9786610d2e565b9450610fa560208701610d2e565b9350604086013567ffffffffffffffff80821115610fc257600080fd5b610fce89838a01610e91565b94506060880135915080821115610fe457600080fd5b610ff089838a01610e91565b9350608088013591508082111561100657600080fd5b5061101388828901610f02565b9150509295509295909350565b6000806040838503121561103357600080fd5b823567ffffffffffffffff8082111561104b57600080fd5b818501915085601f83011261105f57600080fd5b8135602061106c82610e6d565b6040516110798282610e40565b83815260059390931b850182019282810191508984111561109957600080fd5b948201945b838610156110be576110af86610d2e565b8252948201949082019061109e565b965050860135925050808211156110d457600080fd5b506110e185828601610e91565b9150509250929050565b600081518084526020808501945080840160005b8381101561111b578151875295820195908201906001016110ff565b509495945050505050565b602081526000610daa60208301846110eb565b6000806040838503121561114c57600080fd5b61115583610d2e565b91506020830135801515811461116a57600080fd5b809150509250929050565b6000806040838503121561118857600080fd5b61119183610d2e565b915061119f60208401610d2e565b90509250929050565b600080600080600060a086880312156111c057600080fd5b6111c986610d2e565b94506111d760208701610d2e565b93506040860135925060608601359150608086013567ffffffffffffffff81111561120157600080fd5b61101388828901610f02565b600181811c9082168061122157607f821691505b6020821081141561124257634e487b7160e01b600052602260045260246000fd5b50919050565b6020808252602e908201527f455243313135353a2063616c6c6572206973206e6f7420746f6b656e206f776e60408201526d195c881bdc88185c1c1c9bdd995960921b606082015260800190565b634e487b7160e01b600052603260045260246000fd5b634e487b7160e01b600052601160045260246000fd5b60006000198214156112d6576112d66112ac565b5060010190565b600082198211156112f0576112f06112ac565b500190565b60208082526025908201527f455243313135353a207472616e7366657220746f20746865207a65726f206164604082015264647265737360d81b606082015260800190565b6020808252602a908201527f455243313135353a20696e73756666696369656e742062616c616e636520666f60408201526939103a3930b739b332b960b11b606082015260800190565b60408152600061139760408301856110eb565b82810360208401526113a981856110eb565b95945050505050565b6001600160a01b03868116825285166020820152604081018490526060810183905260a0608082018190526000906113ec90830184610dca565b979650505050505050565b60006020828403121561140957600080fd5b8151610daa81610d74565b600060033d111561142d5760046000803e5060005160e01c5b90565b600060443d101561143e5790565b6040516003193d81016004833e81513d67ffffffffffffffff816024840111818411171561146e57505050505090565b82850191508151818111156114865750505050505090565b843d87010160208285010111156114a05750505050505090565b6114af60208286010187610e40565b509095945050505050565b60208082526028908201527f455243313135353a204552433131353552656365697665722072656a656374656040820152676420746f6b656e7360c01b606082015260800190565b6001600160a01b0386811682528516602082015260a06040820181905260009061152e908301866110eb565b828103606084015261154081866110eb565b905082810360808401526115548185610dca565b9897505050505050505056fea26469706673582212206881afd02bfedffa170e2469b13a5cdc5d20364c5b28b4cb94f1bfc84bcd388b64736f6c6343000809003368747470733a2f2f67616d652e6578616d706c652f6170692f6974656d2f7b69647d2e6a736f6e",
  "linkReferences": {},
  "deployedLinkReferences": {}
}