{
  "_format": "hh-sol-artifact-1",
  "contractName": "Provenance",
  "sourceName": "contracts/Provenance.sol",
  "abi": [
    {
      "inputs": [],
      "stateMutability": "nonpayable",
      "type": "constructor"
    },
    {
      "anonymous": false,
      "inputs": [
        {
          "indexed": true,
          "internalType": "address",
          "name": "previousOwner",
          "type": "address"
        },
        {
          "indexed": true,
          "internalType": "address",
          "name": "newOwner",
          "type": "address"
        }
      ],
      "name": "OwnershipTransferred",
      "type": "event"
    },
    {
      "inputs": [
        {
          "internalType": "address",
          "name": "from",
          "type": "address"
        },
        {
          "internalType": "string",
          "name": "name",
          "type": "string"
        },
        {
          "internalType": "string",
          "name": "producer_type",
          "type": "string"
        }
      ],
      "name": "addProducer",
      "outputs": [],
      "stateMutability": "nonpayable",
      "type": "function"
    },
    {
      "inputs": [
        {
          "internalType": "string",
          "name": "pub_number",
          "type": "string"
        },
        {
          "internalType": "string",
          "name": "name",
          "type": "string"
        }
      ],
      "name": "addProduct",
      "outputs": [],
      "stateMutability": "nonpayable",
      "type": "function"
    },
    {
      "inputs": [
        {
          "internalType": "address",
          "name": "recipient",
          "type": "address"
        }
      ],
      "name": "certifyProducer",
      "outputs": [],
      "stateMutability": "nonpayable",
      "type": "function"
    },
    {
      "inputs": [
        {
          "internalType": "address",
          "name": "recipient",
          "type": "address"
        }
      ],
      "name": "findProducer",
      "outputs": [
        {
          "components": [
            {
              "internalType": "string",
              "name": "name",
              "type": "string"
            },
            {
              "internalType": "string",
              "name": "producer_type",
              "type": "string"
            },
            {
              "internalType": "bool",
              "name": "certification",
              "type": "bool"
            },
            {
              "internalType": "enum Provenance.ActionStatus",
              "name": "action_status",
              "type": "uint8"
            }
          ],
          "internalType": "struct Provenance.Producer",
          "name": "",
          "type": "tuple"
        }
      ],
      "stateMutability": "view",
      "type": "function"
    },
    {
      "inputs": [
        {
          "internalType": "string",
          "name": "pub_number",
          "type": "string"
        }
      ],
      "name": "findProduct",
      "outputs": [
        {
          "components": [
            {
              "internalType": "address",
              "name": "producer_address",
              "type": "address"
            },
            {
              "internalType": "string",
              "name": "name",
              "type": "string"
            },
            {
              "internalType": "uint256",
              "name": "date_time_of_origin",
              "type": "uint256"
            },
            {
              "internalType": "enum Provenance.ActionStatus",
              "name": "action_status",
              "type": "uint8"
            }
          ],
          "internalType": "struct Provenance.Product",
          "name": "",
          "type": "tuple"
        }
      ],
      "stateMutability": "view",
      "type": "function"
    },
    {
      "inputs": [],
      "name": "owner",
      "outputs": [
        {
          "internalType": "address",
          "name": "",
          "type": "address"
        }
      ],
      "stateMutability": "view",
      "type": "function"
    },
    {
      "inputs": [],
      "name": "producer_count",
      "outputs": [
        {
          "internalType": "uint256",
          "name": "",
          "type": "uint256"
        }
      ],
      "stateMutability": "view",
      "type": "function"
    },
    {
      "inputs": [
        {
          "internalType": "uint256",
          "name": "",
          "type": "uint256"
        }
      ],
      "name": "producer_list",
      "outputs": [
        {
          "internalType": "address",
          "name": "",
          "type": "address"
        }
      ],
      "stateMutability": "view",
      "type": "function"
    },
    {
      "inputs": [
        {
          "internalType": "address",
          "name": "",
          "type": "address"
        }
      ],
      "name": "producers",
      "outputs": [
        {
          "internalType": "string",
          "name": "name",
          "type": "string"
        },
        {
          "internalType": "string",
          "name": "producer_type",
          "type": "string"
        },
        {
          "internalType": "bool",
          "name": "certification",
          "type": "bool"
        },
        {
          "internalType": "enum Provenance.ActionStatus",
          "name": "action_status",
          "type": "uint8"
        }
      ],
      "stateMutability": "view",
      "type": "function"
    },
    {
      "inputs": [],
      "name": "product_count",
      "outputs": [
        {
          "internalType": "uint256",
          "name": "",
          "type": "uint256"
        }
      ],
      "stateMutability": "view",
      "type": "function"
    },
    {
      "inputs": [
        {
          "internalType": "uint256",
          "name": "",
          "type": "uint256"
        }
      ],
      "name": "product_list",
      "outputs": [
        {
          "internalType": "string",
          "name": "",
          "type": "string"
        }
      ],
      "stateMutability": "view",
      "type": "function"
    },
    {
      "inputs": [
        {
          "internalType": "string",
          "name": "",
          "type": "string"
        }
      ],
      "name": "products",
      "outputs": [
        {
          "internalType": "address",
          "name": "producer_address",
          "type": "address"
        },
        {
          "internalType": "string",
          "name": "name",
          "type": "string"
        },
        {
          "internalType": "uint256",
          "name": "date_time_of_origin",
          "type": "uint256"
        },
        {
          "internalType": "enum Provenance.ActionStatus",
          "name": "action_status",
          "type": "uint8"
        }
      ],
      "stateMutability": "view",
      "type": "function"
    },
    {
      "inputs": [
        {
          "internalType": "address",
          "name": "recipient",
          "type": "address"
        }
      ],
      "name": "removeProducer",
      "outputs": [],
      "stateMutability": "nonpayable",
      "type": "function"
    },
    {
      "inputs": [
        {
          "internalType": "string",
          "name": "pub_number",
          "type": "string"
        }
      ],
      "name": "removeProduct",
      "outputs": [],
      "stateMutability": "nonpayable",
      "type": "function"
    },
    {
      "inputs": [],
      "name": "renounceOwnership",
      "outputs": [],
      "stateMutability": "nonpayable",
      "type": "function"
    },
    {
      "inputs": [
        {
          "internalType": "address",
          "name": "newOwner",
          "type": "address"
        }
      ],
      "name": "transferOwnership",
      "outputs": [],
      "stateMutability": "nonpayable",
      "type": "function"
    }
  ],
  "bytecode": "0x608060405234801561001057600080fd5b5061001a33610029565b60006005819055600655610079565b600080546001600160a01b038381166001600160a01b0319831681178455604051919092169283917f8be0079c531659141344cd1fd0a4f28419497f9722a3daafe3b4186f6b6457e09190a35050565b6112b6806100886000396000f3fe608060405234801561001057600080fd5b50600436106101005760003560e01c8063963518cc11610097578063d9a7d91011610066578063d9a7d91014610226578063e2d5d32214610239578063eb5ba90f14610259578063f2fde38b1461027957600080fd5b8063963518cc146101d75780639726dd19146101e0578063c7a69e0b146101f3578063ca2efb551461021357600080fd5b806353efc828116100d357806353efc82814610194578063587c601b146101a7578063715018a6146101be5780638da5cb5b146101c657600080fd5b80630186a4231461010557806326324eff146101315780633f185b6c146101545780635350d17114610169575b600080fd5b610118610113366004610ec0565b61028c565b6040516101289493929190610f91565b60405180910390f35b61014461013f366004610fef565b610356565b6040516101289493929190611011565b610167610162366004610fef565b610494565b005b61017c61017736600461104e565b6104cb565b6040516001600160a01b039091168152602001610128565b6101676101a2366004610fef565b6104f5565b6101b060055481565b604051908152602001610128565b610167610527565b6000546001600160a01b031661017c565b6101b060065481565b6101676101ee366004610ec0565b61053b565b610206610201366004610fef565b610580565b6040516101289190611067565b6101676102213660046110c9565b610716565b61016761023436600461112d565b6108ab565b61024c610247366004610ec0565b610a44565b60405161012891906111a1565b61026c61026736600461104e565b610b3f565b60405161012891906111ed565b610167610287366004610fef565b610beb565b8051602081830181018051600282529282019190930120915280546001820180546001600160a01b0390921692916102c390611200565b80601f01602080910402602001604051908101604052809291908181526020018280546102ef90611200565b801561033c5780601f106103115761010080835404028352916020019161033c565b820191906000526020600020905b81548152906001019060200180831161031f57829003601f168201915b50505050600283015460039093015491929160ff16905084565b60016020526000908152604090208054819061037190611200565b80601f016020809104026020016040519081016040528092919081815260200182805461039d90611200565b80156103ea5780601f106103bf576101008083540402835291602001916103ea565b820191906000526020600020905b8154815290600101906020018083116103cd57829003601f168201915b5050505050908060010180546103ff90611200565b80601f016020809104026020016040519081016040528092919081815260200182805461042b90611200565b80156104785780601f1061044d57610100808354040283529160200191610478565b820191906000526020600020905b81548152906001019060200180831161045b57829003601f168201915b5050506002909301549192505060ff8082169161010090041684565b61049c610c64565b6001600160a01b0381166000908152600160205260408120600201805461ff001916610100835b021790555050565b600381815481106104db57600080fd5b6000918252602090912001546001600160a01b0316905081565b6104fd610c64565b6001600160a01b03166000908152600160208190526040909120600201805460ff19169091179055565b61052f610c64565b6105396000610cbe565b565b610543610c64565b6000600282604051610555919061123b565b908152604051908190036020019020600301805460ff1916600183818111156104c3576104c3610f59565b610588610d0e565b6001600160a01b038216600090815260016020526040908190208151608081019092528054829082906105ba90611200565b80601f01602080910402602001604051908101604052809291908181526020018280546105e690611200565b80156106335780601f1061060857610100808354040283529160200191610633565b820191906000526020600020905b81548152906001019060200180831161061657829003601f168201915b5050505050815260200160018201805461064c90611200565b80601f016020809104026020016040519081016040528092919081815260200182805461067890611200565b80156106c55780601f1061069a576101008083540402835291602001916106c5565b820191906000526020600020905b8154815290600101906020018083116106a857829003601f168201915b5050509183525050600282015460ff808216151560208401526040909201916101009091041660018111156106fc576106fc610f59565b600181111561070d5761070d610f59565b90525092915050565b6001600283604051610728919061123b565b9081526040519081900360200190206003015460ff16600181111561074f5761074f610f59565b14156107a25760405162461bcd60e51b815260206004820152601e60248201527f546869732070726f6475637420697320616c72656164792065786973742e000060448201526064015b60405180910390fd5b604080516080810182523381526020810183905242818301526001606082015290516002906107d290859061123b565b90815260405160209181900382019020825181546001600160a01b0319166001600160a01b03909116178155828201518051919261081892600185019290910190610d48565b5060408201516002820155606082015160038201805460ff19166001838181111561084557610845610f59565b02179055505060048054600181018255600091909152835161089192507f8a35acfbc15ff81a39ae7d344fd709f28e8600b4aa8c65c6b64bfe7fe36bd19b909101906020850190610d48565b50600680549060006108a283611257565b91905055505050565b60016001600160a01b038416600090815260016020819052604090912060020154610100900460ff16908111156108e4576108e4610f59565b14156109325760405162461bcd60e51b815260206004820152601f60248201527f546869732070726f647563657220697320616c72656164792065786973742e006044820152606401610799565b60408051608081018252838152602080820184905260008284018190526001606084018190526001600160a01b0388168252825292909220815180519293919261097f9284920190610d48565b5060208281015180516109989260018501920190610d48565b50604082015160028201805491151560ff1983168117825560608501519261ff001990911661ffff19909116176101008360018111156109da576109da610f59565b0217905550506003805460018101825560009182527fc2575a0e9e593c00f959f8c92f12db2869c3395a3b0502d05e2516446f71f85b0180546001600160a01b0319166001600160a01b03871617905560058054925090610a3a83611257565b9190505550505050565b610a4c610dcc565b600282604051610a5c919061123b565b9081526040805191829003602090810183206080840190925281546001600160a01b0316835260018201805491840191610a9590611200565b80601f0160208091040260200160405190810160405280929190818152602001828054610ac190611200565b8015610b0e5780601f10610ae357610100808354040283529160200191610b0e565b820191906000526020600020905b815481529060010190602001808311610af157829003601f168201915b505050918352505060028201546020820152600382015460409091019060ff1660018111156106fc576106fc610f59565b60048181548110610b4f57600080fd5b906000526020600020016000915090508054610b6a90611200565b80601f0160208091040260200160405190810160405280929190818152602001828054610b9690611200565b8015610be35780601f10610bb857610100808354040283529160200191610be3565b820191906000526020600020905b815481529060010190602001808311610bc657829003601f168201915b505050505081565b610bf3610c64565b6001600160a01b038116610c585760405162461bcd60e51b815260206004820152602660248201527f4f776e61626c653a206e6577206f776e657220697320746865207a65726f206160448201526564647265737360d01b6064820152608401610799565b610c6181610cbe565b50565b6000546001600160a01b031633146105395760405162461bcd60e51b815260206004820181905260248201527f4f776e61626c653a2063616c6c6572206973206e6f7420746865206f776e65726044820152606401610799565b600080546001600160a01b038381166001600160a01b0319831681178455604051919092169283917f8be0079c531659141344cd1fd0a4f28419497f9722a3daafe3b4186f6b6457e09190a35050565b6040518060800160405280606081526020016060815260200160001515815260200160006001811115610d4357610d43610f59565b905290565b828054610d5490611200565b90600052602060002090601f016020900481019282610d765760008555610dbc565b82601f10610d8f57805160ff1916838001178555610dbc565b82800160010185558215610dbc579182015b82811115610dbc578251825591602001919060010190610da1565b50610dc8929150610e08565b5090565b604051806080016040528060006001600160a01b03168152602001606081526020016000815260200160006001811115610d4357610d43610f59565b5b80821115610dc85760008155600101610e09565b634e487b7160e01b600052604160045260246000fd5b600082601f830112610e4457600080fd5b813567ffffffffffffffff80821115610e5f57610e5f610e1d565b604051601f8301601f19908116603f01168101908282118183101715610e8757610e87610e1d565b81604052838152866020858801011115610ea057600080fd5b836020870160208301376000602085830101528094505050505092915050565b600060208284031215610ed257600080fd5b813567ffffffffffffffff811115610ee957600080fd5b610ef584828501610e33565b949350505050565b60005b83811015610f18578181015183820152602001610f00565b83811115610f27576000848401525b50505050565b60008151808452610f45816020860160208601610efd565b601f01601f19169290920160200192915050565b634e487b7160e01b600052602160045260246000fd5b60028110610f8d57634e487b7160e01b600052602160045260246000fd5b9052565b6001600160a01b0385168152608060208201819052600090610fb590830186610f2d565b9050836040830152610fca6060830184610f6f565b95945050505050565b80356001600160a01b0381168114610fea57600080fd5b919050565b60006020828403121561100157600080fd5b61100a82610fd3565b9392505050565b6080815260006110246080830187610f2d565b82810360208401526110368187610f2d565b9150508315156040830152610fca6060830184610f6f565b60006020828403121561106057600080fd5b5035919050565b60208152600082516080602084015261108360a0840182610f2d565b90506020840151601f198483030160408501526110a08282610f2d565b91505060408401511515606084015260608401516110c16080850182610f6f565b509392505050565b600080604083850312156110dc57600080fd5b823567ffffffffffffffff808211156110f457600080fd5b61110086838701610e33565b9350602085013591508082111561111657600080fd5b5061112385828601610e33565b9150509250929050565b60008060006060848603121561114257600080fd5b61114b84610fd3565b9250602084013567ffffffffffffffff8082111561116857600080fd5b61117487838801610e33565b9350604086013591508082111561118a57600080fd5b5061119786828701610e33565b9150509250925092565b602080825282516001600160a01b031682820152820151608060408301526000906111cf60a0840182610f2d565b90506040840151606084015260608401516110c16080850182610f6f565b60208152600061100a6020830184610f2d565b600181811c9082168061121457607f821691505b6020821081141561123557634e487b7160e01b600052602260045260246000fd5b50919050565b6000825161124d818460208701610efd565b9190910192915050565b600060001982141561127957634e487b7160e01b600052601160045260246000fd5b506001019056fea264697066735822122088d5e54515c2ad57ae6d85aab35eff2b42d6edd68d08975583429fdb055965ea64736f6c63430008090033",
  "linkReferences": {},
  "deployedLinkReferences": {}
}