{
  "_format": "hh-sol-artifact-1",
  "contractName": "Tra",
  "sourceName": "contracts/Tra.sol",
  "abi": [
    {
      "inputs": [],
      "stateMutability": "nonpayable",
      "type": "constructor"
    },
    {
      "anonymous": false,
      "inputs": [
        {
          "indexed": false,
          "internalType": "string",
          "name": "text",
          "type": "string"
        }
      ],
      "name": "Log",
      "type": "event"
    },
    {
      "anonymous": false,
      "inputs": [
        {
          "indexed": true,
          "internalType": "address",
          "name": "previousOwner",
          "type": "address"
        },
        {
          "indexed": true,
          "internalType": "address",
          "name": "newOwner",
          "type": "address"
        }
      ],
      "name": "OwnershipTransferred",
      "type": "event"
    },
    {
      "inputs": [
        {
          "internalType": "address",
          "name": "",
          "type": "address"
        }
      ],
      "name": "balances",
      "outputs": [
        {
          "internalType": "uint256",
          "name": "",
          "type": "uint256"
        }
      ],
      "stateMutability": "view",
      "type": "function"
    },
    {
      "inputs": [
        {
          "internalType": "address",
          "name": "recipient",
          "type": "address"
        }
      ],
      "name": "calculateReputation",
      "outputs": [
        {
          "internalType": "uint256",
          "name": "",
          "type": "uint256"
        }
      ],
      "stateMutability": "view",
      "type": "function"
    },
    {
      "inputs": [
        {
          "internalType": "uint256",
          "name": "purchase_cid",
          "type": "uint256"
        }
      ],
      "name": "checkShipment",
      "outputs": [
        {
          "components": [
            {
              "internalType": "address",
              "name": "sender",
              "type": "address"
            },
            {
              "internalType": "address",
              "name": "recipient",
              "type": "address"
            },
            {
              "internalType": "uint256",
              "name": "start_time",
              "type": "uint256"
            },
            {
              "internalType": "string",
              "name": "item1",
              "type": "string"
            },
            {
              "internalType": "uint256",
              "name": "quantity1",
              "type": "uint256"
            },
            {
              "internalType": "uint256",
              "name": "price1",
              "type": "uint256"
            },
            {
              "internalType": "string",
              "name": "item2",
              "type": "string"
            },
            {
              "internalType": "uint256",
              "name": "quantity2",
              "type": "uint256"
            },
            {
              "internalType": "uint256",
              "name": "price2",
              "type": "uint256"
            },
            {
              "internalType": "bool",
              "name": "receiver_sign",
              "type": "bool"
            },
            {
              "internalType": "enum Tra.ActionStatus",
              "name": "action_status",
              "type": "uint8"
            }
          ],
          "internalType": "struct Tra.Shipment",
          "name": "",
          "type": "tuple"
        }
      ],
      "stateMutability": "view",
      "type": "function"
    },
    {
      "inputs": [
        {
          "internalType": "address",
          "name": "recipient",
          "type": "address"
        }
      ],
      "name": "checkSuccess",
      "outputs": [
        {
          "internalType": "uint256",
          "name": "",
          "type": "uint256"
        }
      ],
      "stateMutability": "view",
      "type": "function"
    },
    {
      "inputs": [
        {
          "internalType": "uint256",
          "name": "",
          "type": "uint256"
        }
      ],
      "name": "conditions",
      "outputs": [
        {
          "internalType": "uint256",
          "name": "end_time",
          "type": "uint256"
        },
        {
          "internalType": "string",
          "name": "destination",
          "type": "string"
        },
        {
          "internalType": "uint256",
          "name": "token_amount",
          "type": "uint256"
        }
      ],
      "stateMutability": "view",
      "type": "function"
    },
    {
      "inputs": [
        {
          "internalType": "address",
          "name": "recipient",
          "type": "address"
        },
        {
          "internalType": "string",
          "name": "item1",
          "type": "string"
        },
        {
          "internalType": "uint256",
          "name": "quantity1",
          "type": "uint256"
        },
        {
          "internalType": "uint256",
          "name": "price1",
          "type": "uint256"
        },
        {
          "internalType": "string",
          "name": "item2",
          "type": "string"
        },
        {
          "internalType": "uint256",
          "name": "quantity2",
          "type": "uint256"
        },
        {
          "internalType": "uint256",
          "name": "price2",
          "type": "uint256"
        }
      ],
      "name": "createContract",
      "outputs": [],
      "stateMutability": "nonpayable",
      "type": "function"
    },
    {
      "inputs": [
        {
          "internalType": "uint256",
          "name": "purchase_cid",
          "type": "uint256"
        }
      ],
      "name": "deleteShipment",
      "outputs": [],
      "stateMutability": "nonpayable",
      "type": "function"
    },
    {
      "inputs": [
        {
          "internalType": "address",
          "name": "supplier",
          "type": "address"
        }
      ],
      "name": "getBalance",
      "outputs": [
        {
          "internalType": "uint256",
          "name": "",
          "type": "uint256"
        }
      ],
      "stateMutability": "view",
      "type": "function"
    },
    {
      "inputs": [],
      "name": "invoice_id",
      "outputs": [
        {
          "internalType": "uint256",
          "name": "",
          "type": "uint256"
        }
      ],
      "stateMutability": "view",
      "type": "function"
    },
    {
      "inputs": [
        {
          "internalType": "uint256",
          "name": "",
          "type": "uint256"
        }
      ],
      "name": "invoice_list",
      "outputs": [
        {
          "internalType": "uint256",
          "name": "",
          "type": "uint256"
        }
      ],
      "stateMutability": "view",
      "type": "function"
    },
    {
      "inputs": [
        {
          "internalType": "uint256",
          "name": "purchase_cid",
          "type": "uint256"
        }
      ],
      "name": "issueInvoice",
      "outputs": [],
      "stateMutability": "payable",
      "type": "function"
    },
    {
      "inputs": [],
      "name": "owner",
      "outputs": [
        {
          "internalType": "address",
          "name": "",
          "type": "address"
        }
      ],
      "stateMutability": "view",
      "type": "function"
    },
    {
      "inputs": [
        {
          "internalType": "uint256",
          "name": "shipment_cid",
          "type": "uint256"
        }
      ],
      "name": "purchaseOrder",
      "outputs": [],
      "stateMutability": "nonpayable",
      "type": "function"
    },
    {
      "inputs": [],
      "name": "purchase_id",
      "outputs": [
        {
          "internalType": "uint256",
          "name": "",
          "type": "uint256"
        }
      ],
      "stateMutability": "view",
      "type": "function"
    },
    {
      "inputs": [
        {
          "internalType": "uint256",
          "name": "",
          "type": "uint256"
        }
      ],
      "name": "purchase_list",
      "outputs": [
        {
          "internalType": "uint256",
          "name": "",
          "type": "uint256"
        }
      ],
      "stateMutability": "view",
      "type": "function"
    },
    {
      "inputs": [
        {
          "internalType": "uint256",
          "name": "purchase_cid",
          "type": "uint256"
        }
      ],
      "name": "recoverToken",
      "outputs": [],
      "stateMutability": "nonpayable",
      "type": "function"
    },
    {
      "inputs": [],
      "name": "renounceOwnership",
      "outputs": [],
      "stateMutability": "nonpayable",
      "type": "function"
    },
    {
      "inputs": [
        {
          "internalType": "address",
          "name": "from",
          "type": "address"
        },
        {
          "internalType": "address",
          "name": "to",
          "type": "address"
        },
        {
          "internalType": "uint256",
          "name": "token_amount",
          "type": "uint256"
        }
      ],
      "name": "sendToken",
      "outputs": [],
      "stateMutability": "payable",
      "type": "function"
    },
    {
      "inputs": [
        {
          "internalType": "uint256",
          "name": "purchase_cid",
          "type": "uint256"
        },
        {
          "internalType": "uint256",
          "name": "end_time",
          "type": "uint256"
        },
        {
          "internalType": "string",
          "name": "destination",
          "type": "string"
        },
        {
          "internalType": "uint256",
          "name": "token_amount",
          "type": "uint256"
        }
      ],
      "name": "setContractParameters",
      "outputs": [],
      "stateMutability": "nonpayable",
      "type": "function"
    },
    {
      "inputs": [],
      "name": "shipment_id",
      "outputs": [
        {
          "internalType": "uint256",
          "name": "",
          "type": "uint256"
        }
      ],
      "stateMutability": "view",
      "type": "function"
    },
    {
      "inputs": [
        {
          "internalType": "address",
          "name": "",
          "type": "address"
        }
      ],
      "name": "shipment_list",
      "outputs": [
        {
          "internalType": "uint256",
          "name": "",
          "type": "uint256"
        }
      ],
      "stateMutability": "view",
      "type": "function"
    },
    {
      "inputs": [
        {
          "internalType": "uint256",
          "name": "",
          "type": "uint256"
        }
      ],
      "name": "shipments",
      "outputs": [
        {
          "internalType": "address",
          "name": "sender",
          "type": "address"
        },
        {
          "internalType": "address",
          "name": "recipient",
          "type": "address"
        },
        {
          "internalType": "uint256",
          "name": "start_time",
          "type": "uint256"
        },
        {
          "internalType": "string",
          "name": "item1",
          "type": "string"
        },
        {
          "internalType": "uint256",
          "name": "quantity1",
          "type": "uint256"
        },
        {
          "internalType": "uint256",
          "name": "price1",
          "type": "uint256"
        },
        {
          "internalType": "string",
          "name": "item2",
          "type": "string"
        },
        {
          "internalType": "uint256",
          "name": "quantity2",
          "type": "uint256"
        },
        {
          "internalType": "uint256",
          "name": "price2",
          "type": "uint256"
        },
        {
          "internalType": "bool",
          "name": "receiver_sign",
          "type": "bool"
        },
        {
          "internalType": "enum Tra.ActionStatus",
          "name": "action_status",
          "type": "uint8"
        }
      ],
      "stateMutability": "view",
      "type": "function"
    },
    {
      "inputs": [
        {
          "internalType": "address",
          "name": "",
          "type": "address"
        }
      ],
      "name": "success_shipment_list",
      "outputs": [
        {
          "internalType": "uint256",
          "name": "",
          "type": "uint256"
        }
      ],
      "stateMutability": "view",
      "type": "function"
    },
    {
      "inputs": [
        {
          "internalType": "address",
          "name": "newOwner",
          "type": "address"
        }
      ],
      "name": "transferOwnership",
      "outputs": [],
      "stateMutability": "nonpayable",
      "type": "function"
    }
  ],
  "bytecode": "0x608060405234801561001057600080fd5b5061001a33610054565b600060018190556002819055600355600480546001600160a01b031916730fa8781a83e46826621b3bc094ea2a0212e71b231790556100a4565b600080546001600160a01b038381166001600160a01b0319831681178455604051919092169283917f8be0079c531659141344cd1fd0a4f28419497f9722a3daafe3b4186f6b6457e09190a35050565b6119a4806100b36000396000f3fe60806040526004361061014b5760003560e01c80636495b228116100b6578063d4f6fe8c1161006f578063d4f6fe8c146103e7578063dbe9d19414610414578063dff424e814610427578063ee552d1614610447578063f2fde38b14610474578063f8b2cb4f1461049457600080fd5b80636495b2281461031d578063715018a61461033d5780637fc8f241146103525780638da5cb5b14610372578063c407cd971461039a578063cb1a233d146103c757600080fd5b80632ac08a93116101085780632ac08a93146102215780632f3e0bc6146102585780632fdcfbd21461027a57806331742fa71461028d5780634a7cf769146102c35780634ca71f8d146102f057600080fd5b80630e6d7eed146101505780630f34e2dd146101795780631e2b9b481461018f57806326c50007146101a557806327c06fd5146101d457806327e235e3146101f4575b600080fd5b34801561015c57600080fd5b5061016660015481565b6040519081526020015b60405180910390f35b34801561018557600080fd5b5061016660035481565b34801561019b57600080fd5b5061016660025481565b3480156101b157600080fd5b506101c56101c0366004611406565b6104ca565b6040516101709392919061146c565b3480156101e057600080fd5b506101666101ef3660046114ac565b610575565b34801561020057600080fd5b5061016661020f3660046114ac565b60056020526000908152604090205481565b34801561022d57600080fd5b5061024161023c366004611406565b6105e0565b6040516101709b9a99989796959493929190611506565b34801561026457600080fd5b50610278610273366004611406565b610759565b005b610278610288366004611591565b6107aa565b34801561029957600080fd5b506101666102a83660046114ac565b6001600160a01b03166000908152600b602052604090205490565b3480156102cf57600080fd5b506101666102de366004611406565b60096020526000908152604090205481565b3480156102fc57600080fd5b5061031061030b366004611406565b61098d565b60405161017091906115cd565b34801561032957600080fd5b50610278610338366004611406565b610b74565b34801561034957600080fd5b50610278610c74565b34801561035e57600080fd5b5061027861036d36600461174d565b610c88565b34801561037e57600080fd5b506000546040516001600160a01b039091168152602001610170565b3480156103a657600080fd5b506101666103b53660046114ac565b600b6020526000908152604090205481565b3480156103d357600080fd5b506102786103e2366004611406565b610e34565b3480156103f357600080fd5b506101666104023660046114ac565b600a6020526000908152604090205481565b610278610422366004611406565b610f7e565b34801561043357600080fd5b506102786104423660046117e8565b611170565b34801561045357600080fd5b50610166610462366004611406565b60086020526000908152604090205481565b34801561048057600080fd5b5061027861048f3660046114ac565b6111cf565b3480156104a057600080fd5b506101666104af3660046114ac565b6001600160a01b031660009081526005602052604090205490565b600760205260009081526040902080546001820180549192916104ec90611840565b80601f016020809104026020016040519081016040528092919081815260200182805461051890611840565b80156105655780601f1061053a57610100808354040283529160200191610565565b820191906000526020600020905b81548152906001019060200180831161054857829003601f168201915b5050505050908060020154905083565b6001600160a01b0381166000908152600a6020526040812054156105d3576001600160a01b0382166000908152600a6020908152604080832054600b909252909120546105c3906064611891565b6105cd91906118b0565b92915050565b506000919050565b919050565b60066020526000908152604090208054600182015460028301546003840180546001600160a01b03948516959490931693919261061c90611840565b80601f016020809104026020016040519081016040528092919081815260200182805461064890611840565b80156106955780601f1061066a57610100808354040283529160200191610695565b820191906000526020600020905b81548152906001019060200180831161067857829003601f168201915b5050505050908060040154908060050154908060060180546106b690611840565b80601f01602080910402602001604051908101604052809291908181526020018280546106e290611840565b801561072f5780601f106107045761010080835404028352916020019161072f565b820191906000526020600020905b81548152906001019060200180831161071257829003601f168201915b50505050600783015460088401546009909401549293909290915060ff808216916101009004168b565b610761611245565b600081815260066020908152604080832060098101805461ff001916610300179055546001600160a01b03168352600a90915281208054916107a2836118d2565b919050555050565b600480546040516370a0823160e01b81526001600160a01b03868116938201939093529116906370a082319060240160206040518083038186803b1580156107f157600080fd5b505afa158015610805573d6000803e3d6000fd5b505050506040513d601f19601f8201168201806040525081019061082991906118e9565b6001600160a01b03841660009081526005602052604090208190558111156108985760405162461bcd60e51b815260206004820152601e60248201527f596f7520646f206e6f74206861766520656e6f75676820746f6b656e732e000060448201526064015b60405180910390fd5b600480546040516323b872dd60e01b81526001600160a01b03868116938201939093528483166024820152604481018490529116906323b872dd90606401602060405180830381600087803b1580156108f057600080fd5b505af1158015610904573d6000803e3d6000fd5b505050506040513d601f19601f820116820180604052508101906109289190611902565b61093157600080fd5b7fcf34ef537ac33ee1ac626ca1587a0a7e8e51561e5514f8cb36afa1c5102b3bab604051610980906020808252600d908201526c2830bcb6b2b73a1039b2b73a1760991b604082015260600190565b60405180910390a1505050565b6109956112ef565b60008281526006602090815260409182902082516101608101845281546001600160a01b039081168252600183015416928101929092526002810154928201929092526003820180549192916060840191906109f090611840565b80601f0160208091040260200160405190810160405280929190818152602001828054610a1c90611840565b8015610a695780601f10610a3e57610100808354040283529160200191610a69565b820191906000526020600020905b815481529060010190602001808311610a4c57829003601f168201915b505050505081526020016004820154815260200160058201548152602001600682018054610a9690611840565b80601f0160208091040260200160405190810160405280929190818152602001828054610ac290611840565b8015610b0f5780601f10610ae457610100808354040283529160200191610b0f565b820191906000526020600020905b815481529060010190602001808311610af257829003601f168201915b50505091835250506007820154602082015260088201546040820152600982015460ff80821615156060840152608090920191610100909104166003811115610b5a57610b5a6114ce565b6003811115610b6b57610b6b6114ce565b90525092915050565b6000818152600660205260408120600101546001600160a01b03163314610bdd5760405162461bcd60e51b815260206004820152601a60248201527f54686973206163636f756e74206973206e6f742062757965722e000000000000604482015260640161088f565b60008281526006602052604090206007810154600890910154610c009190611891565b60008381526006602052604090206004810154600590910154610c239190611891565b610c2d9190611924565b6000838152600660209081526040808320600901805460ff1916600117905560028054845260089092528220859055805492935090610c6b8361193c565b91905055505050565b610c7c611245565b610c86600061129f565b565b604051806101600160405280336001600160a01b03168152602001886001600160a01b0316815260200142815260200187815260200186815260200185815260200184815260200183815260200182815260200160001515815260200160006003811115610cf857610cf86114ce565b905260018054600090815260066020908152604091829020845181546001600160a01b039182166001600160a01b03199182161783558684015195830180549690921695169490941790935590830151600283015560608301518051610d64926003850192019061136d565b506080820151600482015560a0820151600582015560c08201518051610d9491600684019160209091019061136d565b5060e0820151600782015561010080830151600883015561012083015160098301805491151560ff1983168117825561014086015193919261ff001990911661ffff199091161790836003811115610dee57610dee6114ce565b021790555050336000908152600a602052604081208054925090610e118361193c565b909155505060018054906000610e268361193c565b919050555050505050505050565b610e3c611245565b60008181526007602090815260408083206002015460068352818420546001600160a01b0316845260059092528220805491929091610e7c908490611957565b909155505060008181526007602090815260408083206002015460068352818420600101546001600160a01b0316845260059092528220805491929091610ec4908490611924565b90915550506004805460008381526006602090815260408083206001015460079092529182902060020154915163a9059cbb60e01b81526001600160a01b03918216948101949094526024840191909152169063a9059cbb90604401602060405180830381600087803b158015610f3a57600080fd5b505af1158015610f4e573d6000803e3d6000fd5b505050506040513d601f19601f82011682018060405250810190610f729190611902565b610f7b57600080fd5b50565b60008181526008602090815260408083205480845260069092528220546001600160a01b03163314611033577fcf34ef537ac33ee1ac626ca1587a0a7e8e51561e5514f8cb36afa1c5102b3bab604051611009906020808252601b908201527f5468697320736869706d656e74206973206e6f7420796f7572732e0000000000604082015260600190565b60405180910390a16000908152600660205260409020600901805461ff0019166102001790555050565b60008181526006602052604090206009015460ff166110ab577fcf34ef537ac33ee1ac626ca1587a0a7e8e51561e5514f8cb36afa1c5102b3bab604051610980906020808252601a908201527f54686520726563656976657220646964206e6f74207369676e2e000000000000604082015260600190565b600081815260066020526040902060078101546008909101546110ce9190611891565b600082815260066020526040902060048101546005909101546110f19190611891565b6110fb9190611924565b600082815260066020908152604080832060098101805461ff001916610100179055546001600160a01b03168352600b909152812080549294509061113f8361193c565b9091555050600380546000908152600960205260408120839055815491906111668361193c565b9190505550505050565b611178611245565b6040805160608101825284815260208082018581528284018590526000888152600783529390932082518155925180519293926111bb926001850192019061136d565b506040820151816002015590505050505050565b6111d7611245565b6001600160a01b03811661123c5760405162461bcd60e51b815260206004820152602660248201527f4f776e61626c653a206e6577206f776e657220697320746865207a65726f206160448201526564647265737360d01b606482015260840161088f565b610f7b8161129f565b6000546001600160a01b03163314610c865760405162461bcd60e51b815260206004820181905260248201527f4f776e61626c653a2063616c6c6572206973206e6f7420746865206f776e6572604482015260640161088f565b600080546001600160a01b038381166001600160a01b0319831681178455604051919092169283917f8be0079c531659141344cd1fd0a4f28419497f9722a3daafe3b4186f6b6457e09190a35050565b60405180610160016040528060006001600160a01b0316815260200160006001600160a01b031681526020016000815260200160608152602001600081526020016000815260200160608152602001600081526020016000815260200160001515815260200160006003811115611368576113686114ce565b905290565b82805461137990611840565b90600052602060002090601f01602090048101928261139b57600085556113e1565b82601f106113b457805160ff19168380011785556113e1565b828001600101855582156113e1579182015b828111156113e15782518255916020019190600101906113c6565b506113ed9291506113f1565b5090565b5b808211156113ed57600081556001016113f2565b60006020828403121561141857600080fd5b5035919050565b6000815180845260005b8181101561144557602081850181015186830182015201611429565b81811115611457576000602083870101525b50601f01601f19169290920160200192915050565b838152606060208201526000611485606083018561141f565b9050826040830152949350505050565b80356001600160a01b03811681146105db57600080fd5b6000602082840312156114be57600080fd5b6114c782611495565b9392505050565b634e487b7160e01b600052602160045260246000fd5b6004811061150257634e487b7160e01b600052602160045260246000fd5b9052565b6001600160a01b038c811682528b166020820152604081018a90526101606060820181905260009061153a8382018c61141f565b90508960808401528860a084015282810360c084015261155a818961141f565b9150508560e0830152846101008301528315156101208301526115816101408301846114e4565b9c9b505050505050505050505050565b6000806000606084860312156115a657600080fd5b6115af84611495565b92506115bd60208501611495565b9150604084013590509250925092565b602081526115e76020820183516001600160a01b03169052565b6000602083015161160360408401826001600160a01b03169052565b5060408301516060830152606083015161016080608085015261162a61018085018361141f565b9150608085015160a085015260a085015160c085015260c0850151601f198584030160e086015261165b838261141f565b60e08701516101008781019190915287015161012080880191909152870151909350905061014061168f8187018315159052565b86015190506116a0858301826114e4565b5090949350505050565b634e487b7160e01b600052604160045260246000fd5b600082601f8301126116d157600080fd5b813567ffffffffffffffff808211156116ec576116ec6116aa565b604051601f8301601f19908116603f01168101908282118183101715611714576117146116aa565b8160405283815286602085880101111561172d57600080fd5b836020870160208301376000602085830101528094505050505092915050565b600080600080600080600060e0888a03121561176857600080fd5b61177188611495565b9650602088013567ffffffffffffffff8082111561178e57600080fd5b61179a8b838c016116c0565b975060408a0135965060608a0135955060808a01359150808211156117be57600080fd5b506117cb8a828b016116c0565b93505060a0880135915060c0880135905092959891949750929550565b600080600080608085870312156117fe57600080fd5b8435935060208501359250604085013567ffffffffffffffff81111561182357600080fd5b61182f878288016116c0565b949793965093946060013593505050565b600181811c9082168061185457607f821691505b6020821081141561187557634e487b7160e01b600052602260045260246000fd5b50919050565b634e487b7160e01b600052601160045260246000fd5b60008160001904831182151516156118ab576118ab61187b565b500290565b6000826118cd57634e487b7160e01b600052601260045260246000fd5b500490565b6000816118e1576118e161187b565b506000190190565b6000602082840312156118fb57600080fd5b5051919050565b60006020828403121561191457600080fd5b815180151581146114c757600080fd5b600082198211156119375761193761187b565b500190565b60006000198214156119505761195061187b565b5060010190565b6000828210156119695761196961187b565b50039056fea2646970667358221220a6ffbc66cb489263df92529c960f937318dc9380f0ec1e5d27f810468d99818964736f6c63430008090033",
  "linkReferences": {},
  "deployedLinkReferences": {}
}